:100003007590FFE4F5A0F5B0D293D292D291C2904D
:1000130020940AD2A0D2A4D2B0D2B4801820950AD8
:10002300D2A0D2A5D2B0D2B5800B209608D2A0D24E
:10003300A6D2B0D2B6D293D292D290C29120940AD1
:10004300D2A1D2A4D2B1D2B4801820950AD2A1D21F
:10005300A5D2B1D2B5800B209608D2A1D2A6D2B137
:10006300D2B6D293D291D290C29220940AD2A2D283
:10007300A4D2B2D2B4801820950AD2A2D2A5D2B209
:10008300D2B5800B209608D2A2D2A6D2B2D2B6D2D3
:1000930092D291D290C293209409D2A3D2A4D2B384
:1000A300D2B422209509D2A3D2A5D2B3D2B52220AD
:0B00B3009608D2A3D2A6D2B3D2B62288
:030000000200BE3D
:0C00BE00787FE4F6D8FD7581070200038E
:00000001FF
