:1003B200414354494F4E3A20005550574152440050
:1003C2004E4F204F462054494D45533A00444F5713
:1003D2004E57415244004E4F204F462054494D45FE
:1003E200533A2000464F5257415244005245564517
:1003F200525345004C454654005249474854004721
:10040200524950434C4F534500475249504F504573
:100412004E00524F4241524D204953204D4F5649B2
:100422004E47005052455353203920544F205354C5
:030432004F500028
:0304A9001204DE5C
:1004AC00E4FFE4FEE4FD0DBD64FC0EBEFFF60FBFE1
:0204BC0002F04C
:0104BE00221B
:0C04D2008F90C2B0D2B21204ACC2B222B1
:0C04DE008F90D2B0D2B21204ACC2B22295
:0B0435007FC01204D27BFF7A0379D84D
:100440008B128A138914AB12AA13A91412046560C3
:10045000130514E5147002051314F9120465FF1254
:0504600004DE80E22231
:100490007F381204D27F0E1204D27F011204D27F61
:0904A000061204D27F800204D28E
:10022200E4F59075A0FFF5B01204907BFF7A037994
:10023200B212044030A04730A41C7BFF7A0379BB82
:100242001204407FC01204D27BFF7A0379C21204E7
:100252004012000380CA30A5117BFF7A0379CF12C6
:10026200044012043512000380B630A6C77BFF7A21
:100272000379E612044012043512000380A230A171
:100282003F30A4127BFF7A0379EE12044012043548
:1002920012000302022230A5127BFF7A0379F612C2
:1002A200044012043512000302022230A6867BFFAC
:1002B2007A0379FB1204401204351200030202226F
:1002C20020A20302023630A4177F101204D27BFF51
:1002D2007A04790112044012043512000302022248
:1002E20020A5030202367BFF7A04790B1204401226
:0802F200043512000302022290
:10000300E4F510F51120A00302009C30A42A7F31EF
:100013001204A90511E51170020510640145107061
:1000230007F50A750B0180DDE5116402451070D5F3
:10003300F50C750D010202FA30A52A7F321204A9CC
:100043000511E51170020510640145107007F50AEA
:10005300750B0280B0E5116402451070A8F50C75AC
:100063000D020202FA30A69D7F331204DE1204ACA5
:100073000511E51170020510640145107008F50AB9
:10008300750B03020008E5116402451060030200CA
:1000930008F50C750D030202FA20A1030201413099
:1000A300A4317F341204DE1204AC0511E511700291
:1000B3000510640145107008F50A750B0402000869
:1000C300E511640245106003020008F50C750D0488
:1000D3000202FA30A5317F351204DE1204AC051199
:1000E300E51170020510640145107008F50A750BDF
:1000F30005020008E511640245106003020008F5DB
:100103000C750D050202FA20A6030200087F3612C1
:1001130004DE1204AC0511E51170020510640145FB
:10012300107008F50A750B06020008E51164024514
:10013300106003020008F50C750D060202FA20A2F6
:10014300030201E630A4317F371204DE1204AC054A
:1001530011E51170020510640145107008F50A7568
:100163000B07020008E51164024510600302000852
:10017300F50C750D070202FA30A5317F381204DE43
:100183001204AC0511E511700205106401451070ED
:1001930008F50A750B08020008E5116402451060B2
:1001A30003020008F50C750D080202FA20A60302EB
:1001B30000087F391204DE1204AC0511E511700248
:1001C3000510640145107008F50A750B0902000853
:1001D300E511640245106003020008F50C750D0972
:1001E3000202FA20A30302000820A5030200087FED
:1001F300301204DE1204AC0511E51170020510641F
:100203000145107007F50AF50B020008E5116402B9
:0E02130045106003020008F50CF50D1202FA0A
:0102210022BA
:1002FA00AE0AAF0BFC7D0A12047EE50D2FF509E567
:04030A000C3EF508A8
:10030E007F011204D27F801204D27BFF7A0479140B
:10031E001204407FC01204D27BFF7A0479251204A6
:10032E0040E4F50EF50FC3E509940AE508648094E0
:10033E008050081204BF1204BF8042C3E509941412
:10034E00E50864809480500B1204BF1204BF12049F
:10035E00BF802AC3E509941EE50864809480500E80
:10036E001204BF1204BF1204BF1204BF800F120486
:10037E00BF1204BF1204BF1204BF1204BF30A20D7D
:10038E0020A620050FE50F709D050E8099E50F65DF
:10039E00097004E50E6508600A050FE50F70870504
:0303AE000E80833B
:0103B1002229
:1004BF00E4FFE4FEE4FD0DBDFFFC0EBEFFF60FBF33
:0204CF0002F039
:0104D1002208
:030000000204EA0D
:0C04EA00787FE4F6D8FD75811402022230
:10046500BB010689828A83E0225002E722BBFE0295
:09047500E32289828A83E49322C8
:10047E00EF8DF0A4A8F0CF8CF0A428CE8DF0A42E92
:02048E00FE224C
:00000001FF
