:10054100040A01020408040E080402010412102026
:080551004080041680402010D8
:10000300E4F520F52120900302009830942A12058C
:10001300150521E52170020520640145207008F5CE
:100023001A751B010201A6E5216402452060030243
:1000330001A6F51C751D012230952A12051505210F
:10004300E52170020520640145207008F51A751B2F
:10005300020201A6E5216402452060030201A6F520
:100063001C751D02222096030201A6120515052107
:10007300E52170020520640145207008F51A751BFF
:10008300030201A6E5216402452060030201A6F5EF
:100093001C751D032220910302012830942A1205A6
:1000A300150521E52170020520640145207008F53E
:1000B3001A751B040201A6E52164024520600302B0
:1000C30001A6F51C751D042230952A12051505217C
:1000D300E52170020520640145207008F51A751B9F
:1000E300050201A6E5216402452060030201A6F58D
:1000F3001C751D05222096030201A6120515052174
:10010300E52170020520640145207008F51A751B6E
:10011300060201A6E5216402452060030201A6F55B
:100123001C751D062230927B30942612051505217D
:10013300E52170020520640145207007F51A751B3F
:10014300078060E521640245207058F51C751D0782
:10015300223095261205150521E52170020520643C
:100163000145207007F51A751B088037E5216402E5
:100173004520702FF51C751D082230962612051593
:100183000521E52170020520640145207007F51A59
:10019300751B09800EE521640245207006F51C7568
:1001A3001D09222093030200082095030200081270
:1001B30005150521E521700205206401452070071E
:1001C300F51AF51B020008E52164024520600302CD
:0601D3000008F51CF51DFB
:0101D9002203
:1001DA007590FFE4F5A0F5B03090693094201205CF
:1001EA0015120003AE1AAF1B7C007D0A12055AE5F0
:1001FA001D2FF509E51C3EF50812045F80D23095E3
:10020A0020120515120003AE1AAF1B7C007D0A12DC
:10021A00055AE51D2FF509E51C3EF50812048B80E9
:10022A00AF3096AC120515120003AE1AAF1B7C0054
:10023A007D0A12055AE51D2FF509E51C3EF508123F
:10024A0004B7808C30916F30942112051512000387
:10025A00AE1AAF1B7C007D0A12055AE51D2FF5095F
:10026A00E51C3EF5081204E30201DA309521120575
:10027A0015120003AE1AAF1B7C007D0A12055AE55F
:10028A001D2FF509E51C3EF5081203A30201DA2029
:10029A0096030201DA120515120003AE1AAF1B7C8F
:1002AA00007D0A12055AE51D2FF509E51C3EF508E1
:1002BA001203D20201DA2092030201DA30942112E7
:1002CA000515120003AE1AAF1B7C007D0A12055AEF
:1002DA00E51D2FF509E51C3EF5081204010201DAB5
:1002EA00309521120515120003AE1AAF1B7C007D52
:1002FA000A12055AE51D2FF509E51C3EF5081204F8
:0D030A00300201DA3096030201DA0201DA56
:06050F00251EF8E6F5B020
:10051500E4FFE4FEE4FD0DBDFFFC0EBEFFF60FBFDC
:0205250002F0E2
:0105270022B1
:10045F00E4F51FD3E51F9509E5086480F8748098CB
:10046F005019E4F51E740A120528EF4E700D051E83
:0C047F00E51ED3940340EE051F80D82238
:10048B00E4F51FD3E51F9509E5086480F87480989F
:10049B005019E4F51E740E120528EF4E700D051E53
:0C04AB00E51ED3940340EE051F80D8220C
:1004B700E4F51FD3E51F9509E5086480F874809873
:1004C7005019E4F51E7412120528EF4E700D051E23
:0C04D700E51ED3940340EE051F80D822E0
:1004E300E4F51FD3E51F9509E5086480F874809847
:1004F3005019E4F51E7416120528EF4E700D051EF3
:0C050300E51ED3940340EE051F80D822B3
:1003A300E4F51FD3E51F9509E5086480F874809888
:1003B300501CE4F51E740A12050F120531EF4E703E
:0F03C3000D051EE51ED3940340EB051F80D522C8
:1003D200E4F51FD3E51F9509E5086480F874809859
:1003E200501CE4F51E740E12050F120531EF4E700B
:0F03F2000D051EE51ED3940340EB051F80D52299
:10040100E4F51FD3E51F9509E5086480F874809829
:10041100501CE4F51E741212050F120531EF4E70D7
:0F0421000D051EE51ED3940340EB051F80D52269
:10043000E4F51FD3E51F9509E5086480F8748098FA
:10044000501CE4F51E741612050F120531EF4E70A4
:0F0450000D051EE51ED3940340EB051F80D5223A
:09052800251EF8E6F5A0120515E8
:100531003092083096057E007F01227E007F0022E6
:03000000020317E1
:0C031700787FE4F6D8FD75812102035EBA
:10055A00EF8DF0A4A8F0CF8CF0A428CE8DF0A42EB5
:02056A00FE226F
:100323000201DAE493A3F8E493A34003F68001F215
:1003330008DFF48029E493A3F85407240CC8C333DB
:10034300C4540F4420C8834004F456800146F6DFAA
:10035300E4800B0102040810204080900541E47EF4
:10036300019360BCA3FF543F30E509541FFEE4939F
:10037300A360010ECF54C025E060A840B8E493A366
:10038300FAE493A3F8E493A3C8C582C8CAC583CA91
:10039300F0A3C8C582C8CAC583CADFE9DEE780BE49
:0105590000A1
:00000001FF
